{
  "contractName": "mybook",
  "abi": [
    {
      "constant": true,
      "inputs": [
        {
          "name": "",
          "type": "uint256"
        }
      ],
      "name": "my",
      "outputs": [
        {
          "name": "state",
          "type": "uint8"
        },
        {
          "name": "a",
          "type": "address"
        },
        {
          "name": "isbn",
          "type": "uint256"
        },
        {
          "name": "author",
          "type": "string"
        },
        {
          "name": "bookname",
          "type": "string"
        }
      ],
      "payable": false,
      "stateMutability": "view",
      "type": "function"
    },
    {
      "constant": true,
      "inputs": [
        {
          "name": "",
          "type": "uint256"
        }
      ],
      "name": "s",
      "outputs": [
        {
          "name": "state",
          "type": "uint8"
        },
        {
          "name": "a",
          "type": "address"
        },
        {
          "name": "isbn",
          "type": "uint256"
        },
        {
          "name": "author",
          "type": "string"
        },
        {
          "name": "bookname",
          "type": "string"
        }
      ],
      "payable": false,
      "stateMutability": "view",
      "type": "function"
    },
    {
      "constant": true,
      "inputs": [
        {
          "name": "",
          "type": "uint256"
        }
      ],
      "name": "books",
      "outputs": [
        {
          "name": "state",
          "type": "uint8"
        },
        {
          "name": "a",
          "type": "address"
        },
        {
          "name": "isbn",
          "type": "uint256"
        },
        {
          "name": "author",
          "type": "string"
        },
        {
          "name": "bookname",
          "type": "string"
        }
      ],
      "payable": false,
      "stateMutability": "view",
      "type": "function"
    },
    {
      "constant": true,
      "inputs": [],
      "name": "bookscount",
      "outputs": [
        {
          "name": "",
          "type": "uint256"
        }
      ],
      "payable": false,
      "stateMutability": "view",
      "type": "function"
    },
    {
      "constant": false,
      "inputs": [
        {
          "name": "_isbn",
          "type": "uint256"
        },
        {
          "name": "_bookname",
          "type": "string"
        },
        {
          "name": "_author",
          "type": "string"
        }
      ],
      "name": "addBook",
      "outputs": [
        {
          "name": "",
          "type": "uint256"
        }
      ],
      "payable": false,
      "stateMutability": "nonpayable",
      "type": "function"
    },
    {
      "constant": true,
      "inputs": [],
      "name": "viewallbooks",
      "outputs": [
        {
          "components": [
            {
              "name": "state",
              "type": "uint8"
            },
            {
              "name": "a",
              "type": "address"
            },
            {
              "name": "isbn",
              "type": "uint256"
            },
            {
              "name": "author",
              "type": "string"
            },
            {
              "name": "bookname",
              "type": "string"
            }
          ],
          "name": "",
          "type": "tuple[]"
        }
      ],
      "payable": false,
      "stateMutability": "view",
      "type": "function"
    }
  ],
  "bytecode": "0x60806040526000805534801561001457600080fd5b506110ae806100246000396000f3fe608060405234801561001057600080fd5b50600436106100625760003560e01c8063028414f21461006757806311f6fafb1461009757806352efd685146100cb57806368744046146100ff578063f8c2086014610133578063fab2724914610151575b600080fd5b610081600480360361007c9190810190610c16565b61016f565b60405161008e9190610e89565b60405180910390f35b6100b160048036036100ac9190810190610bed565b6102dd565b6040516100c2959493929190610ea4565b60405180910390f35b6100e560048036036100e09190810190610bed565b61047d565b6040516100f6959493929190610ea4565b60405180910390f35b61011960048036036101149190810190610bed565b61061d565b60405161012a959493929190610ea4565b60405180910390f35b61013b6107bd565b6040516101489190610e67565b60405180910390f35b6101596109dd565b6040516101669190610e89565b60405180910390f35b60006001600054016000819055506001805480919060010161019191906109e3565b506000600180808054905003815481106101a757fe5b906000526020600020906004020160000160006101000a81548160ff021916908360ff16021790555033600180808054905003815481106101e457fe5b906000526020600020906004020160000160016101000a81548173ffffffffffffffffffffffffffffffffffffffff021916908373ffffffffffffffffffffffffffffffffffffffff160217905550836001808080549050038154811061024757fe5b906000526020600020906004020160010181905550826001808080549050038154811061027057fe5b90600052602060002090600402016003019080519060200190610294929190610a15565b5081600180808054905003815481106102a957fe5b906000526020600020906004020160020190805190602001906102cd929190610a15565b5060018054905090509392505050565b600281815481106102ea57fe5b90600052602060002090600402016000915090508060000160009054906101000a900460ff16908060000160019054906101000a900473ffffffffffffffffffffffffffffffffffffffff1690806001015490806002018054600181600116156101000203166002900480601f0160208091040260200160405190810160405280929190818152602001828054600181600116156101000203166002900480156103d55780601f106103aa576101008083540402835291602001916103d5565b820191906000526020600020905b8154815290600101906020018083116103b857829003601f168201915b505050505090806003018054600181600116156101000203166002900480601f0160208091040260200160405190810160405280929190818152602001828054600181600116156101000203166002900480156104735780601f1061044857610100808354040283529160200191610473565b820191906000526020600020905b81548152906001019060200180831161045657829003601f168201915b5050505050905085565b6003818154811061048a57fe5b90600052602060002090600402016000915090508060000160009054906101000a900460ff16908060000160019054906101000a900473ffffffffffffffffffffffffffffffffffffffff1690806001015490806002018054600181600116156101000203166002900480601f0160208091040260200160405190810160405280929190818152602001828054600181600116156101000203166002900480156105755780601f1061054a57610100808354040283529160200191610575565b820191906000526020600020905b81548152906001019060200180831161055857829003601f168201915b505050505090806003018054600181600116156101000203166002900480601f0160208091040260200160405190810160405280929190818152602001828054600181600116156101000203166002900480156106135780601f106105e857610100808354040283529160200191610613565b820191906000526020600020905b8154815290600101906020018083116105f657829003601f168201915b5050505050905085565b6001818154811061062a57fe5b90600052602060002090600402016000915090508060000160009054906101000a900460ff16908060000160019054906101000a900473ffffffffffffffffffffffffffffffffffffffff1690806001015490806002018054600181600116156101000203166002900480601f0160208091040260200160405190810160405280929190818152602001828054600181600116156101000203166002900480156107155780601f106106ea57610100808354040283529160200191610715565b820191906000526020600020905b8154815290600101906020018083116106f857829003601f168201915b505050505090806003018054600181600116156101000203166002900480601f0160208091040260200160405190810160405280929190818152602001828054600181600116156101000203166002900480156107b35780601f10610788576101008083540402835291602001916107b3565b820191906000526020600020905b81548152906001019060200180831161079657829003601f168201915b5050505050905085565b60606001805480602002602001604051908101604052809291908181526020016000905b828210156109d457838290600052602060002090600402016040518060a00160405290816000820160009054906101000a900460ff1660ff1660ff1681526020016000820160019054906101000a900473ffffffffffffffffffffffffffffffffffffffff1673ffffffffffffffffffffffffffffffffffffffff1673ffffffffffffffffffffffffffffffffffffffff16815260200160018201548152602001600282018054600181600116156101000203166002900480601f01602080910402602001604051908101604052809291908181526020018280546001816001161561010002031660029004801561091a5780601f106108ef5761010080835404028352916020019161091a565b820191906000526020600020905b8154815290600101906020018083116108fd57829003601f168201915b50505050508152602001600382018054600181600116156101000203166002900480601f0160208091040260200160405190810160405280929190818152602001828054600181600116156101000203166002900480156109bc5780601f10610991576101008083540402835291602001916109bc565b820191906000526020600020905b81548152906001019060200180831161099f57829003601f168201915b505050505081525050815260200190600101906107e1565b50505050905090565b60005481565b815481835581811115610a1057600402816004028360005260206000209182019101610a0f9190610a95565b5b505050565b828054600181600116156101000203166002900490600052602060002090601f016020900481019282601f10610a5657805160ff1916838001178555610a84565b82800160010185558215610a84579182015b82811115610a83578251825591602001919060010190610a68565b5b509050610a919190610b17565b5090565b610b1491905b80821115610b1057600080820160006101000a81549060ff02191690556000820160016101000a81549073ffffffffffffffffffffffffffffffffffffffff02191690556001820160009055600282016000610af79190610b3c565b600382016000610b079190610b3c565b50600401610a9b565b5090565b90565b610b3991905b80821115610b35576000816000905550600101610b1d565b5090565b90565b50805460018160011615610100020316600290046000825580601f10610b625750610b81565b601f016020900490600052602060002090810190610b809190610b17565b5b50565b600082601f830112610b9557600080fd5b8135610ba8610ba382610f32565b610f05565b91508082526020830160208301858383011115610bc457600080fd5b610bcf83828461100a565b50505092915050565b600081359050610be78161105d565b92915050565b600060208284031215610bff57600080fd5b6000610c0d84828501610bd8565b91505092915050565b600080600060608486031215610c2b57600080fd5b6000610c3986828701610bd8565b935050602084013567ffffffffffffffff811115610c5657600080fd5b610c6286828701610b84565b925050604084013567ffffffffffffffff811115610c7f57600080fd5b610c8b86828701610b84565b9150509250925092565b6000610ca18383610dae565b905092915050565b610cb281610fc1565b82525050565b610cc181610fc1565b82525050565b6000610cd282610f6b565b610cdc8185610f8e565b935083602082028501610cee85610f5e565b8060005b85811015610d2a5784840389528151610d0b8582610c95565b9450610d1683610f81565b925060208a01995050600181019050610cf2565b50829750879550505050505092915050565b6000610d4782610f76565b610d518185610f9f565b9350610d61818560208601611019565b610d6a8161104c565b840191505092915050565b6000610d8082610f76565b610d8a8185610fb0565b9350610d9a818560208601611019565b610da38161104c565b840191505092915050565b600060a083016000830151610dc66000860182610e49565b506020830151610dd96020860182610ca9565b506040830151610dec6040860182610e2b565b5060608301518482036060860152610e048282610d3c565b91505060808301518482036080860152610e1e8282610d3c565b9150508091505092915050565b610e3481610ff3565b82525050565b610e4381610ff3565b82525050565b610e5281610ffd565b82525050565b610e6181610ffd565b82525050565b60006020820190508181036000830152610e818184610cc7565b905092915050565b6000602082019050610e9e6000830184610e3a565b92915050565b600060a082019050610eb96000830188610e58565b610ec66020830187610cb8565b610ed36040830186610e3a565b8181036060830152610ee58185610d75565b90508181036080830152610ef98184610d75565b90509695505050505050565b6000604051905081810181811067ffffffffffffffff82111715610f2857600080fd5b8060405250919050565b600067ffffffffffffffff821115610f4957600080fd5b601f19601f8301169050602081019050919050565b6000602082019050919050565b600081519050919050565b600081519050919050565b6000602082019050919050565b600082825260208201905092915050565b600082825260208201905092915050565b600082825260208201905092915050565b6000610fcc82610fd3565b9050919050565b600073ffffffffffffffffffffffffffffffffffffffff82169050919050565b6000819050919050565b600060ff82169050919050565b82818337600083830152505050565b60005b8381101561103757808201518184015260208101905061101c565b83811115611046576000848401525b50505050565b6000601f19601f8301169050919050565b61106681610ff3565b811461107157600080fd5b5056fea265627a7a723058209ddaae438b60b72d66dd1be2cb00a3314221062546c30c13a80f286fd241d3566c6578706572696d656e74616cf50037",
  "source": "pragma solidity >=0.4.22 <0.6.0;\r\npragma experimental ABIEncoderV2;\r\n\r\ncontract mybook \r\n{   uint256 public bookscount=0;\r\n    \r\n    struct bookinfo{\r\n       uint8 state; // 1 request ,2-accept,3-reject,0-free\r\n        address a;\r\n        uint256 isbn;\r\n        string author;\r\n        string bookname;\r\n    }\r\n    bookinfo[] public books;\r\n    function addBook(uint256 _isbn, string memory _bookname, string memory _author) public  \r\n      returns(uint) {\r\n           bookscount=bookscount+1;\r\n        books.length++;\r\n        books[books.length-1].state =0;\r\n         books[books.length-1].a=msg.sender;\r\n        books[books.length-1].isbn = _isbn;\r\n        books[books.length-1].bookname= _bookname;\r\n        books[books.length-1].author = _author;\r\n        return books.length;\r\n    }\r\n    function viewallbooks() public  view returns(bookinfo[] memory ) {\r\n        return books;\r\n    }\r\n    bookinfo[] public my;\r\n    \r\n     bookinfo[] public s;\r\n   \r\n}\r\ncontract process is mybook\r\n{\r\n    \r\n    function reqbook(uint256 _isbn) public returns(bool){\r\n         for (uint256 i=0;i<books.length;i++){\r\n            \r\n             if(books[i].isbn==_isbn){\r\n                 require(books[i].a!=msg.sender);//can request only if book belongs to another user\r\n                 require(books[i].state==0);//can request only if book is free\r\n                 books[i].state=1;\r\n                 return true;\r\n             }\r\n         }\r\n         return false;\r\n    }\r\n    function accbook(uint256 _isbn) public returns(bool){\r\n         for (uint256 i=0;i<books.length;i++){\r\n             if(books[i].isbn==_isbn  ){\r\n                 require(books[i].state==1);// can accept only if book is requested\r\n                 require(books[i].a==msg.sender);\r\n                 books[i].state=2;\r\n                 return true;\r\n             }\r\n         }\r\n         return false;\r\n    }\r\n    function rejbook(uint256 _isbn) public returns(bool){\r\n         for (uint256 i=0;i<books.length;i++){\r\n             if(books[i].isbn==_isbn){\r\n                 require(books[i].state==1);// can reject only if book is requested\r\n                 require(books[i].state!=2);//cannot reject after accepting\r\n                 require(books[i].a==msg.sender);\r\n                 books[i].state=3;\r\n                 return true;\r\n             }\r\n         }\r\n         return false;\r\n    }\r\n    function viewstatus(uint256 _isbn)public view returns(uint8)\r\n    {\r\n        for (uint256 i=0;i<books.length;i++){\r\n             if(books[i].isbn==_isbn){\r\n                \r\n                 return books[i].state;\r\n             }\r\n         }\r\n         return 4;// not registered book \r\n    }\r\n  }\r\n\r\n    \r\n\r\n\r\n",
  "sourcePath": "C:/Users/user/demo/contracts/Demo.sol",
  "compiler": {
    "name": "solc",
    "version": "0.5.8+commit.23d335f2.Emscripten.clang"
  },
  "schemaVersion": "3.0.10",
  "updatedAt": "2019-06-15T12:53:43.949Z",
  "devdoc": {
    "methods": {}
  },
  "userdoc": {
    "methods": {}
  }
}