{
  "contractName": "process",
  "abi": [
    {
      "constant": false,
      "inputs": [
        {
          "name": "_isbn",
          "type": "uint256"
        },
        {
          "name": "_bookname",
          "type": "string"
        },
        {
          "name": "_author",
          "type": "string"
        }
      ],
      "name": "addBook",
      "outputs": [
        {
          "name": "",
          "type": "uint256"
        }
      ],
      "payable": false,
      "stateMutability": "nonpayable",
      "type": "function"
    },
    {
      "constant": true,
      "inputs": [
        {
          "name": "",
          "type": "uint256"
        }
      ],
      "name": "my",
      "outputs": [
        {
          "name": "state",
          "type": "uint8"
        },
        {
          "name": "a",
          "type": "address"
        },
        {
          "name": "isbn",
          "type": "uint256"
        },
        {
          "name": "author",
          "type": "string"
        },
        {
          "name": "bookname",
          "type": "string"
        }
      ],
      "payable": false,
      "stateMutability": "view",
      "type": "function"
    },
    {
      "constant": true,
      "inputs": [
        {
          "name": "",
          "type": "uint256"
        }
      ],
      "name": "s",
      "outputs": [
        {
          "name": "state",
          "type": "uint8"
        },
        {
          "name": "a",
          "type": "address"
        },
        {
          "name": "isbn",
          "type": "uint256"
        },
        {
          "name": "author",
          "type": "string"
        },
        {
          "name": "bookname",
          "type": "string"
        }
      ],
      "payable": false,
      "stateMutability": "view",
      "type": "function"
    },
    {
      "constant": true,
      "inputs": [
        {
          "name": "",
          "type": "uint256"
        }
      ],
      "name": "books",
      "outputs": [
        {
          "name": "state",
          "type": "uint8"
        },
        {
          "name": "a",
          "type": "address"
        },
        {
          "name": "isbn",
          "type": "uint256"
        },
        {
          "name": "author",
          "type": "string"
        },
        {
          "name": "bookname",
          "type": "string"
        }
      ],
      "payable": false,
      "stateMutability": "view",
      "type": "function"
    },
    {
      "constant": true,
      "inputs": [],
      "name": "viewallbooks",
      "outputs": [
        {
          "components": [
            {
              "name": "state",
              "type": "uint8"
            },
            {
              "name": "a",
              "type": "address"
            },
            {
              "name": "isbn",
              "type": "uint256"
            },
            {
              "name": "author",
              "type": "string"
            },
            {
              "name": "bookname",
              "type": "string"
            }
          ],
          "name": "",
          "type": "tuple[]"
        }
      ],
      "payable": false,
      "stateMutability": "view",
      "type": "function"
    },
    {
      "constant": true,
      "inputs": [],
      "name": "bookscount",
      "outputs": [
        {
          "name": "",
          "type": "uint256"
        }
      ],
      "payable": false,
      "stateMutability": "view",
      "type": "function"
    },
    {
      "constant": false,
      "inputs": [
        {
          "name": "_isbn",
          "type": "uint256"
        }
      ],
      "name": "reqbook",
      "outputs": [
        {
          "name": "",
          "type": "bool"
        }
      ],
      "payable": false,
      "stateMutability": "nonpayable",
      "type": "function"
    },
    {
      "constant": false,
      "inputs": [
        {
          "name": "_isbn",
          "type": "uint256"
        }
      ],
      "name": "accbook",
      "outputs": [
        {
          "name": "",
          "type": "bool"
        }
      ],
      "payable": false,
      "stateMutability": "nonpayable",
      "type": "function"
    },
    {
      "constant": false,
      "inputs": [
        {
          "name": "_isbn",
          "type": "uint256"
        }
      ],
      "name": "rejbook",
      "outputs": [
        {
          "name": "",
          "type": "bool"
        }
      ],
      "payable": false,
      "stateMutability": "nonpayable",
      "type": "function"
    },
    {
      "constant": true,
      "inputs": [
        {
          "name": "_isbn",
          "type": "uint256"
        }
      ],
      "name": "viewstatus",
      "outputs": [
        {
          "name": "",
          "type": "uint8"
        }
      ],
      "payable": false,
      "stateMutability": "view",
      "type": "function"
    }
  ],
  "bytecode": "0x60806040526000805534801561001457600080fd5b5061168e806100246000396000f3fe608060405234801561001057600080fd5b506004361061009e5760003560e01c80636874404611610066578063687440461461019b57806399d8422d146101cf578063ba90dfe1146101ff578063f8c208601461022f578063fab272491461024d5761009e565b8063028414f2146100a357806311f6fafb146100d3578063207c407e146101075780633d5814211461013757806352efd68514610167575b600080fd5b6100bd60048036036100b891908101906111a5565b61026b565b6040516100ca9190611442565b60405180910390f35b6100ed60048036036100e8919081019061117c565b6103d9565b6040516100fe959493929190611478565b60405180910390f35b610121600480360361011c919081019061117c565b610579565b60405161012e9190611427565b60405180910390f35b610151600480360361014c919081019061117c565b6106be565b60405161015e919061145d565b60405180910390f35b610181600480360361017c919081019061117c565b610745565b604051610192959493929190611478565b60405180910390f35b6101b560048036036101b0919081019061117c565b6108e5565b6040516101c6959493929190611478565b60405180910390f35b6101e960048036036101e4919081019061117c565b610a85565b6040516101f69190611427565b60405180910390f35b6102196004803603610214919081019061117c565b610bcb565b6040516102269190611427565b60405180910390f35b610237610d4c565b6040516102449190611405565b60405180910390f35b610255610f6c565b6040516102629190611442565b60405180910390f35b60006001600054016000819055506001805480919060010161028d9190610f72565b506000600180808054905003815481106102a357fe5b906000526020600020906004020160000160006101000a81548160ff021916908360ff16021790555033600180808054905003815481106102e057fe5b906000526020600020906004020160000160016101000a81548173ffffffffffffffffffffffffffffffffffffffff021916908373ffffffffffffffffffffffffffffffffffffffff160217905550836001808080549050038154811061034357fe5b906000526020600020906004020160010181905550826001808080549050038154811061036c57fe5b90600052602060002090600402016003019080519060200190610390929190610fa4565b5081600180808054905003815481106103a557fe5b906000526020600020906004020160020190805190602001906103c9929190610fa4565b5060018054905090509392505050565b600281815481106103e657fe5b90600052602060002090600402016000915090508060000160009054906101000a900460ff16908060000160019054906101000a900473ffffffffffffffffffffffffffffffffffffffff1690806001015490806002018054600181600116156101000203166002900480601f0160208091040260200160405190810160405280929190818152602001828054600181600116156101000203166002900480156104d15780601f106104a6576101008083540402835291602001916104d1565b820191906000526020600020905b8154815290600101906020018083116104b457829003601f168201915b505050505090806003018054600181600116156101000203166002900480601f01602080910402602001604051908101604052809291908181526020018280546001816001161561010002031660029004801561056f5780601f106105445761010080835404028352916020019161056f565b820191906000526020600020905b81548152906001019060200180831161055257829003601f168201915b5050505050905085565b600080600090505b6001805490508110156106b357826001828154811061059c57fe5b90600052602060002090600402016001015414156106a65760018082815481106105c257fe5b906000526020600020906004020160000160009054906101000a900460ff1660ff16146105ee57600080fd5b3373ffffffffffffffffffffffffffffffffffffffff166001828154811061061257fe5b906000526020600020906004020160000160019054906101000a900473ffffffffffffffffffffffffffffffffffffffff1673ffffffffffffffffffffffffffffffffffffffff161461066457600080fd5b60026001828154811061067357fe5b906000526020600020906004020160000160006101000a81548160ff021916908360ff16021790555060019150506106b9565b8080600101915050610581565b50600090505b919050565b600080600090505b60018054905081101561073a5782600182815481106106e157fe5b906000526020600020906004020160010154141561072d576001818154811061070657fe5b906000526020600020906004020160000160009054906101000a900460ff16915050610740565b80806001019150506106c6565b50600490505b919050565b6003818154811061075257fe5b90600052602060002090600402016000915090508060000160009054906101000a900460ff16908060000160019054906101000a900473ffffffffffffffffffffffffffffffffffffffff1690806001015490806002018054600181600116156101000203166002900480601f01602080910402602001604051908101604052809291908181526020018280546001816001161561010002031660029004801561083d5780601f106108125761010080835404028352916020019161083d565b820191906000526020600020905b81548152906001019060200180831161082057829003601f168201915b505050505090806003018054600181600116156101000203166002900480601f0160208091040260200160405190810160405280929190818152602001828054600181600116156101000203166002900480156108db5780601f106108b0576101008083540402835291602001916108db565b820191906000526020600020905b8154815290600101906020018083116108be57829003601f168201915b5050505050905085565b600181815481106108f257fe5b90600052602060002090600402016000915090508060000160009054906101000a900460ff16908060000160019054906101000a900473ffffffffffffffffffffffffffffffffffffffff1690806001015490806002018054600181600116156101000203166002900480601f0160208091040260200160405190810160405280929190818152602001828054600181600116156101000203166002900480156109dd5780601f106109b2576101008083540402835291602001916109dd565b820191906000526020600020905b8154815290600101906020018083116109c057829003601f168201915b505050505090806003018054600181600116156101000203166002900480601f016020809104026020016040519081016040528092919081815260200182805460018160011615610100020316600290048015610a7b5780601f10610a5057610100808354040283529160200191610a7b565b820191906000526020600020905b815481529060010190602001808311610a5e57829003601f168201915b5050505050905085565b600080600090505b600180549050811015610bc0578260018281548110610aa857fe5b9060005260206000209060040201600101541415610bb3573373ffffffffffffffffffffffffffffffffffffffff1660018281548110610ae457fe5b906000526020600020906004020160000160019054906101000a900473ffffffffffffffffffffffffffffffffffffffff1673ffffffffffffffffffffffffffffffffffffffff161415610b3757600080fd5b600060018281548110610b4657fe5b906000526020600020906004020160000160009054906101000a900460ff1660ff1614610b7257600080fd5b6001808281548110610b8057fe5b906000526020600020906004020160000160006101000a81548160ff021916908360ff1602179055506001915050610bc6565b8080600101915050610a8d565b50600090505b919050565b600080600090505b600180549050811015610d41578260018281548110610bee57fe5b9060005260206000209060040201600101541415610d34576001808281548110610c1457fe5b906000526020600020906004020160000160009054906101000a900460ff1660ff1614610c4057600080fd5b600260018281548110610c4f57fe5b906000526020600020906004020160000160009054906101000a900460ff1660ff161415610c7c57600080fd5b3373ffffffffffffffffffffffffffffffffffffffff1660018281548110610ca057fe5b906000526020600020906004020160000160019054906101000a900473ffffffffffffffffffffffffffffffffffffffff1673ffffffffffffffffffffffffffffffffffffffff1614610cf257600080fd5b600360018281548110610d0157fe5b906000526020600020906004020160000160006101000a81548160ff021916908360ff1602179055506001915050610d47565b8080600101915050610bd3565b50600090505b919050565b60606001805480602002602001604051908101604052809291908181526020016000905b82821015610f6357838290600052602060002090600402016040518060a00160405290816000820160009054906101000a900460ff1660ff1660ff1681526020016000820160019054906101000a900473ffffffffffffffffffffffffffffffffffffffff1673ffffffffffffffffffffffffffffffffffffffff1673ffffffffffffffffffffffffffffffffffffffff16815260200160018201548152602001600282018054600181600116156101000203166002900480601f016020809104026020016040519081016040528092919081815260200182805460018160011615610100020316600290048015610ea95780601f10610e7e57610100808354040283529160200191610ea9565b820191906000526020600020905b815481529060010190602001808311610e8c57829003601f168201915b50505050508152602001600382018054600181600116156101000203166002900480601f016020809104026020016040519081016040528092919081815260200182805460018160011615610100020316600290048015610f4b5780601f10610f2057610100808354040283529160200191610f4b565b820191906000526020600020905b815481529060010190602001808311610f2e57829003601f168201915b50505050508152505081526020019060010190610d70565b50505050905090565b60005481565b815481835581811115610f9f57600402816004028360005260206000209182019101610f9e9190611024565b5b505050565b828054600181600116156101000203166002900490600052602060002090601f016020900481019282601f10610fe557805160ff1916838001178555611013565b82800160010185558215611013579182015b82811115611012578251825591602001919060010190610ff7565b5b50905061102091906110a6565b5090565b6110a391905b8082111561109f57600080820160006101000a81549060ff02191690556000820160016101000a81549073ffffffffffffffffffffffffffffffffffffffff0219169055600182016000905560028201600061108691906110cb565b60038201600061109691906110cb565b5060040161102a565b5090565b90565b6110c891905b808211156110c45760008160009055506001016110ac565b5090565b90565b50805460018160011615610100020316600290046000825580601f106110f15750611110565b601f01602090049060005260206000209081019061110f91906110a6565b5b50565b600082601f83011261112457600080fd5b813561113761113282611506565b6114d9565b9150808252602083016020830185838301111561115357600080fd5b61115e8382846115ea565b50505092915050565b6000813590506111768161163d565b92915050565b60006020828403121561118e57600080fd5b600061119c84828501611167565b91505092915050565b6000806000606084860312156111ba57600080fd5b60006111c886828701611167565b935050602084013567ffffffffffffffff8111156111e557600080fd5b6111f186828701611113565b925050604084013567ffffffffffffffff81111561120e57600080fd5b61121a86828701611113565b9150509250925092565b6000611230838361134c565b905092915050565b61124181611595565b82525050565b61125081611595565b82525050565b60006112618261153f565b61126b8185611562565b93508360208202850161127d85611532565b8060005b858110156112b9578484038952815161129a8582611224565b94506112a583611555565b925060208a01995050600181019050611281565b50829750879550505050505092915050565b6112d4816115a7565b82525050565b60006112e58261154a565b6112ef8185611573565b93506112ff8185602086016115f9565b6113088161162c565b840191505092915050565b600061131e8261154a565b6113288185611584565b93506113388185602086016115f9565b6113418161162c565b840191505092915050565b600060a08301600083015161136460008601826113e7565b5060208301516113776020860182611238565b50604083015161138a60408601826113c9565b50606083015184820360608601526113a282826112da565b915050608083015184820360808601526113bc82826112da565b9150508091505092915050565b6113d2816115d3565b82525050565b6113e1816115d3565b82525050565b6113f0816115dd565b82525050565b6113ff816115dd565b82525050565b6000602082019050818103600083015261141f8184611256565b905092915050565b600060208201905061143c60008301846112cb565b92915050565b600060208201905061145760008301846113d8565b92915050565b600060208201905061147260008301846113f6565b92915050565b600060a08201905061148d60008301886113f6565b61149a6020830187611247565b6114a760408301866113d8565b81810360608301526114b98185611313565b905081810360808301526114cd8184611313565b90509695505050505050565b6000604051905081810181811067ffffffffffffffff821117156114fc57600080fd5b8060405250919050565b600067ffffffffffffffff82111561151d57600080fd5b601f19601f8301169050602081019050919050565b6000602082019050919050565b600081519050919050565b600081519050919050565b6000602082019050919050565b600082825260208201905092915050565b600082825260208201905092915050565b600082825260208201905092915050565b60006115a0826115b3565b9050919050565b60008115159050919050565b600073ffffffffffffffffffffffffffffffffffffffff82169050919050565b6000819050919050565b600060ff82169050919050565b82818337600083830152505050565b60005b838110156116175780820151818401526020810190506115fc565b83811115611626576000848401525b50505050565b6000601f19601f8301169050919050565b611646816115d3565b811461165157600080fd5b5056fea265627a7a72305820415f8802038d30801eb80b476e9ce84420d7816da96b67c38083c206ebee6b966c6578706572696d656e74616cf50037",
  "source": "pragma solidity >=0.4.22 <0.6.0;\r\npragma experimental ABIEncoderV2;\r\n\r\ncontract mybook \r\n{   uint256 public bookscount=0;\r\n    \r\n    struct bookinfo{\r\n       uint8 state; // 1 request ,2-accept,3-reject,0-free\r\n        address a;\r\n        uint256 isbn;\r\n        string author;\r\n        string bookname;\r\n    }\r\n    bookinfo[] public books;\r\n    function addBook(uint256 _isbn, string memory _bookname, string memory _author) public  \r\n      returns(uint) {\r\n           bookscount=bookscount+1;\r\n        books.length++;\r\n        books[books.length-1].state =0;\r\n         books[books.length-1].a=msg.sender;\r\n        books[books.length-1].isbn = _isbn;\r\n        books[books.length-1].bookname= _bookname;\r\n        books[books.length-1].author = _author;\r\n        return books.length;\r\n    }\r\n    function viewallbooks() public  view returns(bookinfo[] memory ) {\r\n        return books;\r\n    }\r\n    bookinfo[] public my;\r\n    \r\n     bookinfo[] public s;\r\n   \r\n}\r\ncontract process is mybook\r\n{\r\n    \r\n    function reqbook(uint256 _isbn) public returns(bool){\r\n         for (uint256 i=0;i<books.length;i++){\r\n            \r\n             if(books[i].isbn==_isbn){\r\n                 require(books[i].a!=msg.sender);//can request only if book belongs to another user\r\n                 require(books[i].state==0);//can request only if book is free\r\n                 books[i].state=1;\r\n                 return true;\r\n             }\r\n         }\r\n         return false;\r\n    }\r\n    function accbook(uint256 _isbn) public returns(bool){\r\n         for (uint256 i=0;i<books.length;i++){\r\n             if(books[i].isbn==_isbn  ){\r\n                 require(books[i].state==1);// can accept only if book is requested\r\n                 require(books[i].a==msg.sender);\r\n                 books[i].state=2;\r\n                 return true;\r\n             }\r\n         }\r\n         return false;\r\n    }\r\n    function rejbook(uint256 _isbn) public returns(bool){\r\n         for (uint256 i=0;i<books.length;i++){\r\n             if(books[i].isbn==_isbn){\r\n                 require(books[i].state==1);// can reject only if book is requested\r\n                 require(books[i].state!=2);//cannot reject after accepting\r\n                 require(books[i].a==msg.sender);\r\n                 books[i].state=3;\r\n                 return true;\r\n             }\r\n         }\r\n         return false;\r\n    }\r\n    function viewstatus(uint256 _isbn)public view returns(uint8)\r\n    {\r\n        for (uint256 i=0;i<books.length;i++){\r\n             if(books[i].isbn==_isbn){\r\n                \r\n                 return books[i].state;\r\n             }\r\n         }\r\n         return 4;// not registered book \r\n    }\r\n  }\r\n\r\n    \r\n\r\n\r\n",
  "sourcePath": "C:/Users/user/demo/contracts/Demo.sol",
  "compiler": {
    "name": "solc",
    "version": "0.5.8+commit.23d335f2.Emscripten.clang"
  },
  "schemaVersion": "3.0.10",
  "updatedAt": "2019-06-15T12:53:44.971Z",
  "devdoc": {
    "methods": {}
  },
  "userdoc": {
    "methods": {}
  }
}